:100000000C942A000C9447000C9447000C94470071
:100010000C9447000C9447000C9447000C94470044
:100020000C9447000C9447000C9447000C94DC039C
:100030000C9447000C9447000C9447000C94470024
:100040000C9447000C9447000C9447000C94470014
:100050000C94470011241FBECFE5D8E0DEBFCDBF12
:1000600010E0A0E6B0E0E2ECF8E002C005900D92EE
:10007000AA3BB107D9F710E0AAEBB0E001C01D928E
:10008000A93CB107E1F70E9449000C945F040C946D
:1000900000000E9440030E94C901882331F089B703
:1000A000816089BF0E94C101F6CF89B78E7F89BF69
:1000B0000E94C5010E94DE01EECF40EF3FEF2FEE20
:1000C0009FED6FEB5FE741BB32BB82B38F7082BBAA
:1000D000000080B38F708093C4008F30B1F7E7E8E1
:1000E000F3E13197F1F700C0000080B38F70809387
:1000F000C4008F30A1F3EFE0F7E23197F1F700C0D1
:10010000000080B38F708093C4008F3041F322BB16
:10011000000080B38F708093C4008F3019F010926C
:10012000C50024C092BB000080B38F708093C400D0
:100130008F3021F081E08093C50018C062BB0000C1
:1001400080B38F708093C4008F3021F082E0809361
:10015000C5000CC052BB000080B38F708093C400F8
:100160008F3009F4B0CF83E08093C5008091C40044
:100170008E3059F4E091C500F0E0EE0FFF1FEE0F56
:10018000FF1FE05AFF4F808108958D3059F4E091B0
:10019000C500F0E0EE0FFF1FEE0FFF1FE05AFF4F0C
:1001A000818108958B3059F4E091C500F0E0EE0FA5
:1001B000FF1FEE0FFF1FE05AFF4F82810895E0916D
:1001C000C500F0E0EE0FFF1FEE0FFF1FE05AFF4FDC
:1001D00083810895C19A0000C19881E28A95F1F760
:1001E000000083ED90E30197F1F700C0000008954F
:1001F00098B3937F98BB8BBB0E94EA0008958FEF62
:100200008ABB87B38E6087BB87E893E10197F1F7DC
:1002100000C0000088E30E94F8008EE00E94F80011
:1002200081E00E94F80083EF91E00197F1F700C0B0
:10023000000086E00E94F8000895C298C39A8BBB24
:100240000E94EA000895CF93DF93EC018881882310
:1002500031F021960E941D0189918823D9F7DF9101
:10026000CF9108956150E82FF0E0E159FF4F808170
:10027000860F0E94F8000895CF92DF92EF92FF92CE
:100280000F931F93CF93DF938C016B011616170604
:10029000C4F4C0E0D0E00F2EFAEBEF2EF0E0FF2E1A
:1002A000F02DF80181918F0190E0B7014AE050E014
:1002B0000E942E04C7010E9423012196CC15DD0562
:1002C00084F3C4E1D0E0CC19DD090AF42196D59578
:1002D000C79564961C161D0654F400E010E08CE1EE
:1002E0000E94F8000F5F1F4F0C171D07C4F3DF912A
:1002F000CF911F910F91FF90EF90DF90CF900895D5
:10030000FC01DB01308181E090E0BC0102C0660F9E
:10031000771F4A95E2F7AB01862F832B8083222338
:1003200039F0213041F48C91409548234C93089545
:100330008C91482B4C930895FC01DB01308181E0C6
:1003400090E0BC0102C0660F771F4A95E2F7AB014F
:10035000862F8095982F93239083223031F023307D
:1003600039F48C91482B4C9308959C9189238C935C
:100370000895A098A198A298A39AA49AA59AA69A3B
:100380000895AB9AAC9AAD9A0895AB98AC98AD9895
:100390000895989B0BC0999B0BC09A9B0BC08091B2
:1003A000B900813049F48093C200089580E0089537
:1003B00080E0089580E0089580E008958091C20073
:1003C000813051F4AE9A8FE493EC0197F1F700C0BD
:1003D0000000AE981092C2000895CF93DF930E9460
:1003E000FF0082E061E00E94320184E790E00E9419
:1003F0002301C0E0D0E08CE10E94F8008BE49DE195
:100400000197F1F700C000002196C630D10599F799
:100410008FE996E8A1E081509040A040E1F700C04C
:10042000000081E00E94F8008DE790E00E94230127
:1004300083E890E00E94230181E067E00E9432019E
:10044000DF91CF91089581E00E94F80081E061E0A2
:100450000E94320180E30E941D0180E30E941D0181
:100460008AE30E941D0180E30E941D0180E30E9437
:100470001D018AE30E941D0108951092C300AE9AE7
:100480008FE493EC0197F1F700C00000AE9882E092
:1004900063E00E9432018BE890E00E9423018FE923
:1004A00096E8A1E081509040A040E1F700C0000034
:1004B00081E00E94F8008DE790E00E94230183E82C
:1004C00090E00E9423011092BE001092BF00109293
:1004D000C0001092C10081E067E00E9432010895DF
:1004E0006F927F928F929F92AF92BF92CF92DF9244
:1004F000EF92FF920F931F93CF93DF93662468943C
:1005000062F8CEEBD0E00F2EF8E5AF2EF2E0BF2E72
:10051000F02D8E010F5F1F4F0F2EF3E0EF2EFF2403
:10052000F02DEC0EFD1ECC24DD246894C1F8CC0E19
:10053000DD1E0F2EFAE07F2EF02D0F2EFAE98F2E02
:10054000F0E09F2EF02D86C0943008F085C00E9408
:100550005D008093C6008091C6008A3219F40E9423
:100560003D0278C08091C300882329F48091C600A1
:100570008D3309F46FC08091C6008D3309F18091ED
:10058000C6000E941D018091C3009091C600E82F13
:10059000F0E0E254FF4F905390838F5F8093C3004D
:1005A000823021F481E0672D0E9432018091C300E6
:1005B000843009F04FC00E945D008D3309F04AC0BD
:1005C0006092C300888190E08A9D90018B9D300DE0
:1005D0009A9D300D1124F8018081FCE38F9FC001AA
:1005E0001124280F391FF7018081280F311DF601D2
:1005F0008081F72D8F9FC0011124820F931F90934C
:10060000C8008093C700AE9A8FE493EC0197F1F78E
:1006100000C00000AE9882E061E00E943201C40197
:100620000E9423018881805D0E941D01F801808164
:10063000805D0E941D018AE30E941D01F6018081F8
:10064000805D0E941D01F7018081805D0E941D0177
:100650001092B8009091C3008091B800813009F4E5
:1006600073CFDF91CF911F910F91FF90EF90DF90AB
:10067000CF90BF90AF909F908F907F906F90089594
:100680000E94B9010E94ED010E9470020E941404B0
:100690000895CF93DF938091C7009091C80028E51B
:1006A00032E0B9010E941A046093BE008091C70035
:1006B0009091C800B9010E941A04ECE3F0E0BF0178
:1006C0000E941A046093BF008091C7009091C800F7
:1006D000B9010E941A04BF010E941A04CAE0D0E0C6
:1006E000BE010E941A046093C0008091C7009091DF
:1006F000C800B9010E941A04BF010E941A04BE0179
:100700000E941A048093C10082E067E00E943201D7
:100710008091BE00805D0E941D018091BF00805DC0
:100720000E941D018AE30E941D018091C000805D2E
:100730000E941D018091C100805D0E941D01DF911A
:10074000CF910895CF93DF93F89413BE1092B90020
:1007500082E061E00E94320181EA90E00E94230180
:1007600088EA90E00E9423010E94C501AE9A8FE5BD
:100770009AEEA0E081509040A040E1F700C0000058
:10078000AE9881E00E94F80083E061E00E943201AF
:100790008FEA90E00E942301C6E0D0E08CE10E9445
:1007A000F800ABE4BDE11197F1F700C0000021971C
:1007B000A9F7DF91CF9108951F920F920FB60F9274
:1007C00011242F933F934F935F936F937F938F9356
:1007D0009F93AF93BF93EF93FF9385EA82BF80917E
:1007E000C7009091C80001979093C8008093C700FC
:1007F0008091C7009091C800009719F00E944903AA
:1008000002C00E94A203FF91EF91BF91AF919F910F
:100810008F917F916F915F914F913F912F910F90A9
:100820000FBE0F901F90189578948CE982BF81E0DD
:1008300083BF0895AA1BBB1B51E107C0AA1FBB1FA2
:10084000A617B70710F0A61BB70B881F991F5A955C
:10085000A9F780959095BC01CD010895FB019F01FA
:10086000E8944230C4F04532B4F44A3029F497FB9E
:100870001EF4909581959F4F642F77270E941A044C
:10088000805D8A330CF0895D8193CB010097A1F7DD
:1008900016F45DE251931082C9010C944F04DC01FF
:1008A000FC01672F71917723E1F7329704C07C91A7
:1008B0006D9370836291AE17BF07C8F30895F894E3
:0208C000FFCF68
:1008C2003738392F3435362A3132332D20303D2B0B
:1008D20080C094D477656C6C636F6D650074696DCC
:1008E2006572002030303A3030200074696D6572D4
:1008F2002063616E73656C656400776169742020A2
:10090200002020202020200030303A303020007794
:0A091200656C6C646F6E65000101F6
:00000001FF
